:1000000048C0D7C1CBC460C05FC05EC05DC05CC02B
:100010005BC05AC059C058C057C056C055C054C024
:1000200053C052C051C050C04FC04EC04DC04CC054
:100030004BC04AC00403090408036B006900750043
:10004000080353004C004400120110010000000896
:10005000C016DF05000101020001090222000101B2
:100060000080FA09040000010300000009210101D9
:100070000001221600070581030800640600FF093D
:1000800001A101150026FF007508950D0900B202B7
:1000900001C011241FBECFEFD4E0DEBFCDBF11E001
:1000A000A0E0B1E0E2E7FAE002C005900D92A231D3
:1000B000B107D9F711E0A2E1B1E001C01D92A0386B
:1000C000B107E1F7B4D4D3C49BCF1F93162F20916F
:1000D0002E0124FF07C020912F0138E82327209309
:1000E0002F0103C02AE520932E01212FDC01E0E33C
:1000F000F1E08D91819321501216DCF380E391E0C1
:10010000612F53D11C5F10932E011F9108951F93EF
:10011000CF93DF9360913F01635067FDBFC0809133
:100120003C01CCE0D0E0C81BD109CD5BDE4F809113
:100130003B018D3209F0A0C0683009F0ADC083ECFE
:10014000809323018AE58093000110921201888137
:10015000807631F0CE010DD48F3F09F47CC082C08F
:100160009A8110922C018981882331F410922D01FB
:100170002CE231E082E06AC0853019F490934001AE
:1001800062C0863009F049C08B81813041F488E437
:1001900090E090933E0180933D0182E13AC082302D
:1001A00041F48AE590E090933E0180933D0182E224
:1001B00030C08330C9F4992341F484E390E09093F4
:1001C0003E0180933D0184E024C0913019F488E31E
:1001D00090E004C09230E1F480E490E090933E011E
:1001E00080933D0188E015C0813241F48CE690E0B7
:1001F00090933E0180933D0189E00BC0823241F42F
:100200008CE790E090933E0180933D0186E101C030
:1002100080E090E49093120125C0883069F0893025
:1002200019F4909342010FC08A3049F08B3059F491
:100230008BE480932F0107C022E431E002C02CE25E
:1002400031E081E003C02CE231E080E030933E01F8
:1002500020933D0107C0988197FD8E8190E890938F
:10026000120107C09F81992321F49E81981708F4F9
:10027000892F8093010110C08091120187FF0CC06B
:10028000CE014BD38F3F21F48EE18093000104C057
:10029000882311F01092010110923F01809100011A
:1002A00084FF53C0809101018F3F09F44EC0182F85
:1002B000893008F018E0811B8093010180912301AF
:1002C00098E8892780932301112371F1809112010D
:1002D00087FF08C084E291E0612F01D3182F893095
:1002E00070F522C020913D0130913E0186FF0AC089
:1002F000F901812FA4E2B1E094919D933196815050
:10030000D9F708C0D901812FE4E2F1E09D919193E2
:100310008150E1F72F5F3F4F812F8150280F311D12
:1003200030933E0120933D0184E291E0612F3DD066
:100330001C5F1C3041F08FEF8093010104C08FEFF0
:10034000809301011EE11093000184E199B1947141
:1003500031F48150D9F71092400110923A01DF91A7
:10036000CF911F910895E9E6F0E08081826080835B
:10037000E89A8BE480932F018AE580932E010895FB
:10038000A82FB92F80E090E041E050EA609530E07E
:1003900009C02D9182279795879510F0842795277E
:1003A000305EC8F36F5FA8F30895EADF8D939D93E5
:1003B0000895CF93CFB7CF93C3954C9BE9F74C9B50
:1003C00009C04C9B07C04C9B05C04C9B03C04C9B79
:1003D00001C0A3C0DF93C0913C01DD27CD5BDE4FA0
:1003E0004C9B02C0DF91EBCF2F930F931F9309B16A
:1003F0002FEF04FB20F94F933F9319B14FEF0127E3
:1004000004FB21F93BE031C04E7F012F19B121607F
:1004100028C0102F4D7F2260000009B129C04B7FFA
:100420002460012F000019B12BC019B1477F28604B
:100430002AC04F7E09B120612CC04F7D19B12062C6
:100440002FC04F7B09B1206432C0422709B14993C4
:100450004FEF0000102714FB20F919B11471C9F1F6
:10046000297F91F2012704FB21F909B1237F89F249
:10047000315058F1102714FB22F919B1277E79F277
:10048000012704FB23F92F7C81F209B1102714FB0B
:1004900024F92F7971F200C019B1012704FB25F965
:1004A0002F7359F200C009B1102714FB26F922302E
:1004B00040F200C019B1012704FB27F9243028F6C7
:1004C0004F77206819B10000F9CF11E01CBB00275D
:1004D00019C03B503195C31BD04011E01CBB0881B3
:1004E000033CF9F00B34E9F020913A011981110F26
:1004F0001213EDCF4A81441F093641F10D3211F03C
:10050000013E29F7009341013F914F911F910F91B7
:100510002F91DF91CCB3C0FD4FCFCF91CFBFCF9103
:10052000189520914101222379F310913F01112365
:1005300069F534306AF130933F0120933B0110910B
:100540003C013BE0311B30933C0122C000913F0154
:100550000130E4F40AE54F7049F43091000134FDB4
:1005600019C000930001C3E2D1E018C030912E0100
:1005700034FD10C000932E01CFE2D1E00FC02795CB
:10058000A8F45150A9F4220F0000F9CF4AE503C0A6
:1005900042ED01C0432FC4E1D0E032E01AB1146152
:1005A0005C9A1AB90BB120E414E15F93012756E07D
:1005B0000BB9279520F4515021F4220FF9CF0127D0
:1005C00056E000003B5A0BB9D0F2279528F4515061
:1005D00029F4220F0000F9CF012756E027950BB927
:1005E00020F4515021F4220FF9CF012756E0299130
:1005F00033230BB921F60B7E10914001110FC65128
:10060000D0400BB911F010933A0111E01CBB00610E
:100610001AB11B7E402F4B7E5F9100C000C00BB90A
:100620001AB94BB971CF2A989EBD0DB407FEFDCF04
:100630009EB58EBD0DB407FEFDCF8EB52A9A0895E6
:10064000809115018823A1F480E090E0FC01EA5933
:10065000FE4F2081FC01E75AFE4F208301968D302A
:100660009105A1F78FEF9FEF9093170180931601EB
:1006700080E090E041E050E0FC01E75AFE4F30811D
:1006800020911501321799F46091160170911701AC
:100690009A01082E02C0220F331F0A94E2F7209518
:1006A00030952623372330931701209316010196A6
:1006B0008D30910509F7809115018F5F80931501A9
:1006C0008091160190911701AEDF089530911801C5
:1006D000232F80E090E02E3018F0E22FEE5001C082
:1006E000E22FF0E0EB5FFE4F4081FC01EA59FE4F44
:1006F000408301962F5F8D30910569F7832F8F5FBF
:10070000809318018E3010F01092180108952091F6
:10071000190180E090E0FC01EA59FE4F2083019628
:100720008D309105C1F780911A01882349F42F5F1C
:10073000209319012F3259F481E080931A01089512
:10074000215020931901222311F410921A010895C7
:1007500040911B0150911C0180E090E061E070E04D
:10076000A3E09B01082E02C0220F331F0A94E2F778
:1007700024233523FC01EA59FE4F2115310511F0E0
:10078000A08301C0108201968D30910551F7CA01F6
:10079000019690931C0180931B0120E28030920708
:1007A00020F010921C0110921B01089580911D01F0
:1007B00090911E01019690931E0180931D018091DE
:1007C0001301909114018130910519F18130910547
:1007D00020F08230910551F50EC080911D0190915D
:1007E0001E012FE08F3F920709F510921E01109213
:1007F0001D016CDF089580911D0190911E0121E083
:100800008F3F920799F410921E0110921D017FDF15
:10081000089580911D0190911E012FE08F3F920756
:1008200029F410921E0110921D0192DF089508DF35
:1008300080910201909103018130910509F4B6DFA6
:1008400008951092030110920201282F392FF90107
:1008500080E090E02191DC01AA59BE4F2C930196D3
:100860008D309105B9F7089581E090E090930301F0
:100870008093020180E090E0FC01EA59FE4F108273
:1008800001968D309105C1F780911301909114016B
:1008900081309105E9F08130910520F08230910599
:1008A000B9F40BC082E090E090931401809313019F
:1008B0001092190110921A01089581E090E090932E
:1008C00014018093130110921C0110921B010895D2
:1008D0001092140110921301109218010895FC0156
:1008E00090912101862F961708F4892FA09122015B
:1008F000B0E0AD58BE4F9D01280F311D02C04D9193
:100900004193A217B307D9F720912201280F209312
:100910002201981B90932101089520912101222307
:1009200031F1261708F4622FE0912201DC01F0E09A
:10093000ED58FE4FCF01860F911D02C03D913193BE
:10094000E817F907D9F780912201860F80932201D9
:10095000261B20932101222319F483E791E071DF04
:1009600081E090912101992319F080E0089581E0C0
:100970000895FC0180818076803261F4818181302C
:1009800011F0893049F48DE0809321011092220109
:100990008FEF089580E0089580E008951F920F92F0
:1009A0000FB60F9211248F939F93E99881E090E006
:1009B0009093200180931F019F918F910F900FBE04
:1009C0000F901F90189580911F0190912001009722
:1009D000F1F080911F01909120018130910509F47F
:1009E00043DF80911F019091200101969093200197
:1009F00080931F0180911F01909120012FE28F3F72
:100A0000920729F41092200110921F01E99A08958B
:100A1000219A229A239A259A53985B9A80E58CBD55
:100A20008DB581608DBD299882E08DBB0895F0DF82
:100A30002EE088E190E00FB6F894A89580936000CE
:100A40000FBE209360008FDC549A80E007C0A89509
:100A5000E7EBFBE03197F1F700C000008150B9F7F8
:100A600054987894A89553DBAEDFE1DEFBCFF89481
:020A7000FFCFB6
:100A72005AFF01000D0F08080505010100000000E2
:020A8200000072
:00000001FF
