:1000000019C028C028C026C025C024C023C022C0D3
:1000100021C020C01FC01EC01DC01CC01BC01AC0F4
:1000200019C018C017C016C015C014C013C012C024
:1000300011C010C011241FBECFEFD4E0DEBFCDBF72
:1000400011E0A0E0B1E001C01D92A230B107E1F7DC
:1000500037D05CC0D5CF1F920F920FB60F921124EC
:1000600010920101109200010F900FBE0F901F908F
:1000700018952A989EBD0DB407FEFDCF9EB58EBD86
:100080000DB407FEFDCF8EB52A9A0895219A229AC3
:10009000239A259A53985B9A80E58CBD8DB5816033
:1000A0008DBD2998E99A83E88093800082E080934F
:1000B00081008CEC9FEF90938900809388000895D5
:1000C000E5DF78948091000190910101D2DF8FE704
:1000D0009FE4A2E181509040A040E1F700C0000001
:1000E000809100019091010101969093010180930C
:1000F00000018091000190910101A0E280309A07F7
:1001000008F31092010110920001DCCFF894FFCFA8
:00000001FF
