:1018000042C076C05BC05AC059C058C057C056C00D
:1018100055C054C053C052C051C050C04FC04EC03C
:101820004DC04CC04BC04AC049C048C047C046C06C
:1018300045C044C0040309041C0377007700770007
:101840002E00660069007300630068006C002E00C3
:10185000640065000E0355005300420061007300F0
:10186000700012011001FF000008C016DC05020123
:10187000010200010902120001010080FA090400BE
:1018800000000000000011241FBECFEFD4E0DEBF37
:10189000CDBF11E0A0E0B1E0E4EEFFE102C00590B1
:1018A0000D92A630B107D9F711E0A6E0B1E001C072
:1018B0001D92AD33B107E1F748D192C3A1CFA82F54
:1018C000B92F80E090E041E050EA609530E009C037
:1018D0002D9182279795879510F084279527305E64
:1018E000C8F36F5FA8F30895EADF8D939D93089581
:1018F000CF93CFB7CF93C3954C9BE9F74C9B09C0CF
:101900004C9B07C04C9B05C04C9B03C04C9B01C02B
:10191000A1C0DF93C0912001DD27C95DDE4F4C9B44
:1019200002C0DF91EBCF2F930F931F9309B12FEFDD
:1019300004FB20F94F933F9319B14FEF012704FBAC
:1019400021F93BE031C04E7F012F19B1216028C041
:10195000102F4D7F2260000009B129C04B7F246009
:10196000012F000019B12BC019B1477F28602AC090
:101970004F7E09B120612CC04F7D19B120622FC06C
:101980004F7B09B1206432C0422709B149934FEF20
:101990000000102714FB20F919B11471C9F1297F37
:1019A00091F2012704FB21F909B1237F89F231501B
:1019B00058F1102714FB22F919B1277E79F201277B
:1019C00004FB23F92F7C81F209B1102714FB24F9C1
:1019D0002F7971F200C019B1012704FB25F92F738B
:1019E00059F200C009B1102714FB26F9223040F249
:1019F00000C019B1012704FB27F9243028F64F77DE
:101A0000206819B10000F9CF11E01CBB002717C0F6
:101A10003B503195C31BD04011E01CBB0881033CF7
:101A2000E9F00B34D9F020911E011981110F121326
:101A3000EDCF093641F10D3211F0013E39F7009337
:101A400025013F914F911F910F912F91DF91CCB3C1
:101A5000C0FD51CFCF91CFBFCF91189520912501D7
:101A6000222379F310912301112311F5343012F15F
:101A70003093230120931F01109120013BE0311B83
:101A80003093200117C00091230101308CF40AE546
:101A90003091000134FD10C000930001C3E1D1E09A
:101AA0000FC02795A8F45150A9F4220F0000F9CFD8
:101AB0004AE503C042ED01C0432FC4E1D0E032E06B
:101AC0001AB114615C9A1AB90BB120E414E15F9366
:101AD000012756E00BB9279520F4515021F4220F2D
:101AE000F9CF012756E000003B5A0BB9D0F22795F9
:101AF00028F4515029F4220F0000F9CF012756E0B5
:101B000027950BB920F4515021F4220FF9CF01276A
:101B100056E0299133230BB921F60B7E1091240155
:101B2000110FC651D0400BB911F010931E0111E0F6
:101B30001CBB00611AB11B7E402F4B7E5F9100C021
:101B400000C00BB91AB94BB97CCFDF93CF930F927A
:101B5000CDB7DEB788E10FB6F8948093600010929D
:101B600060000FBE5B9A81E085BF82E085BF4B9924
:101B700014C280916900826080936900E89A549A47
:101B800080E007C0A895A7EBBBE01197F1F700C074
:101B900000008150B9F754987894EE24FF24809186
:101BA0002301835087FD66C1909120012CE0A22E75
:101BB000B12CA91AB108E7E2F1E0AE0EBF1E909178
:101BC0001F019D3209F0E5C0883009F051C183EC56
:101BD000809313018AE58093000110920701D501DB
:101BE0004C91842F807611963C911197882309F4AB
:101BF0005EC08DE091E0909322018093210133300B
:101C000051F512968C911297803349F41496EC9109
:101C10001497E370F0E0EE5FFE4F808118C08C3ABD
:101C2000A9F4F5018381803889F4E0E0F0E007B69B
:101C300000FCFDCFF89483E080935700E8957894FA
:101C4000E05CFF4F28E1E030F20789F780E0809305
:101C5000100124E093C0353031F1832F8450863059
:101C6000E0F4D50112968D919C9113979093090100
:101C7000809308013930C9F016962C91169720935D
:101C80000A0115968C911597827080930B01309301
:101C90000C0147FD6FC02FEF6DC0323031F481E091
:101CA0008093060102C021E069C020E067C0F50111
:101CB000828110921C01332331F410921D018CE1BA
:101CC00091E022E052C0353019F48093240143C0E2
:101CD0003630C1F5D50113969C911397913019F4C4
:101CE00082E698E104C0923041F484E798E1909351
:101CF00022018093210122E121C09330F1F4882355
:101D000041F484E398E1909322018093210124E03F
:101D100015C0813041F488E398E1909322018093CB
:101D200021012CE10BC0823041F484E598E19093CD
:101D30002201809321012EE001C020E080E4809305
:101D400007011CC0383059F0393019F4809326014E
:101D500002C03A3039F08CE191E020E006C086E222
:101D600091E002C08CE191E021E090932201809308
:101D7000210104C080E88093070108C0F501878134
:101D8000882321F48681821708F4282F20930101EB
:101D90006FC09091070197FF6BC090910A01D82EF8
:101DA000981708F4D92E9D1990930A0121E09111FA
:101DB00020E080910C01873010F430E052C08501A2
:101DC00011C08091080190910901AC014F5F5F4FF4
:101DD0005093090140930801D8016D918D01298329
:101DE000F1D02981802F8A198D1558F33DC03E5FAF
:101DF000F894E0910801F0910901D5018D919D9130
:101E00005D0141E00C0140935700E895112478945E
:101E100080910801909109010296909309018093A5
:101E200008018F739070009741F02223D1F03D1587
:101E3000C0F080910B018823A1F0F894E091080193
:101E4000F0910901329785E080935700E8957894E6
:101E500007B600FCFDCFF89481E180935700E89528
:101E600078943D1508F4C3CF222311F0109201019C
:101E7000109223018091000184FF7AC080910101BA
:101E80008F3F09F475C0D82E893010F098E0D92E14
:101E90008D19809301018091130198E8892780931F
:101EA0001301DD2009F452C08091070187FF31C082
:101EB00080910A018D1508F4D82E8D1980930A019E
:101EC0000D2D10E00C5E1E4F84E1A82E81E0B82E8F
:101ED0001CC020910C0180910801909109012730CC
:101EE00020F068D0F501808304C0FC018491D50105
:101EF0008C930894A11CB11C809108019091090158
:101F000001969093090180930801A016B10609F784
:101F10001AC0E0912101F091220186FF09C08D2DA8
:101F2000A4E1B1E094919D9331968150D9F707C017
:101F30008D2DA4E1B1E091919D938150E1F7F09353
:101F40002201E0932101BD2DB93060F484E191E0DC
:101F50006D2DCADC8D2D8C5F8C3041F09FEF9093FE
:101F6000010104C08FEF809301018EE18093000195
:101F700084E199B1947131F48150D9F71092240120
:101F800010921E0180910601882309F408CEFA946C
:101F900009F005CEEA9409F002CE1BB8F8941DBAF8
:101FA0001092690081E085BF15BEE0911101F091AA
:101FB00012010995F999FECF92BD81BDF89A992732
:101FC00080B50895262FF999FECF1FBA92BD81BD25
:101FD00020BD0FB6F894FA9AF99A0FBE01960895AB
:041FE000F894FFCFA3
:061FE4005AFF1E930F00DE
:0400000300001800E1
:00000001FF
